:020000020000FC
:1000000000C0CFEFCDBFCFE3CEBF10E028D03DD0B2
:1000100062E1609326086AE76093270867E06093CF
:1000200000080FEF00930206009341060093450677
:10003000E0E3EBBFE0E0F0E070910C0870FBE6F766
:1000400071E070930C0800910806FF3729F00083D7
:10005000219120934406F0CFEF3F51F369F70F93BE
:1000600002E0009350000091510001FB0EF0DEF71A
:1000700008ED0093340001E00093400008ED009388
:100080003400109341000F9108950F93EF93FF9365
:1000900001E0009340040DE10093500407E1009358
:1000A000E10603E10093E50604E00093E6060FEFA6
:1000B0000093010700932107E2E5F4E000E00193DB
:0C00C00000E30083FF91EF910F91089581
:00000001FF
